{
  "_format": "hh-sol-artifact-1",
  "contractName": "Escrow",
  "sourceName": "contracts/Escrow.sol",
  "abi": [
    {
      "anonymous": false,
      "inputs": [
        {
          "indexed": true,
          "internalType": "uint256",
          "name": "escrowId",
          "type": "uint256"
        },
        {
          "indexed": false,
          "internalType": "string",
          "name": "ipfsHash",
          "type": "string"
        }
      ],
      "name": "DisputeRaised",
      "type": "event"
    },
    {
      "anonymous": false,
      "inputs": [
        {
          "indexed": true,
          "internalType": "uint256",
          "name": "escrowId",
          "type": "uint256"
        },
        {
          "indexed": false,
          "internalType": "bool",
          "name": "fundsReleased",
          "type": "bool"
        }
      ],
      "name": "DisputeResolved",
      "type": "event"
    },
    {
      "anonymous": false,
      "inputs": [
        {
          "indexed": true,
          "internalType": "uint256",
          "name": "escrowId",
          "type": "uint256"
        },
        {
          "indexed": true,
          "internalType": "address",
          "name": "buyer",
          "type": "address"
        },
        {
          "indexed": true,
          "internalType": "address",
          "name": "seller",
          "type": "address"
        },
        {
          "indexed": false,
          "internalType": "uint256",
          "name": "amount",
          "type": "uint256"
        }
      ],
      "name": "EscrowCreated",
      "type": "event"
    },
    {
      "anonymous": false,
      "inputs": [
        {
          "indexed": true,
          "internalType": "uint256",
          "name": "escrowId",
          "type": "uint256"
        },
        {
          "indexed": false,
          "internalType": "uint256",
          "name": "amount",
          "type": "uint256"
        }
      ],
      "name": "FundsDeposited",
      "type": "event"
    },
    {
      "anonymous": false,
      "inputs": [
        {
          "indexed": true,
          "internalType": "uint256",
          "name": "escrowId",
          "type": "uint256"
        }
      ],
      "name": "FundsReleased",
      "type": "event"
    },
    {
      "anonymous": false,
      "inputs": [
        {
          "indexed": true,
          "internalType": "uint256",
          "name": "projectId",
          "type": "uint256"
        },
        {
          "indexed": false,
          "internalType": "uint256",
          "name": "milestoneIndex",
          "type": "uint256"
        }
      ],
      "name": "MilestoneCompleted",
      "type": "event"
    },
    {
      "anonymous": false,
      "inputs": [
        {
          "indexed": true,
          "internalType": "uint256",
          "name": "projectId",
          "type": "uint256"
        }
      ],
      "name": "ProjectCancelled",
      "type": "event"
    },
    {
      "anonymous": false,
      "inputs": [
        {
          "indexed": true,
          "internalType": "uint256",
          "name": "projectId",
          "type": "uint256"
        }
      ],
      "name": "ProjectCompleted",
      "type": "event"
    },
    {
      "anonymous": false,
      "inputs": [
        {
          "indexed": true,
          "internalType": "uint256",
          "name": "projectId",
          "type": "uint256"
        },
        {
          "indexed": true,
          "internalType": "address",
          "name": "client",
          "type": "address"
        },
        {
          "indexed": true,
          "internalType": "address",
          "name": "freelancer",
          "type": "address"
        },
        {
          "indexed": false,
          "internalType": "uint256",
          "name": "budget",
          "type": "uint256"
        }
      ],
      "name": "ProjectCreated",
      "type": "event"
    },
    {
      "anonymous": false,
      "inputs": [
        {
          "indexed": true,
          "internalType": "uint256",
          "name": "projectId",
          "type": "uint256"
        },
        {
          "indexed": false,
          "internalType": "string",
          "name": "ipfsHash",
          "type": "string"
        }
      ],
      "name": "ProjectDisputed",
      "type": "event"
    },
    {
      "inputs": [
        {
          "internalType": "uint256",
          "name": "_projectId",
          "type": "uint256"
        }
      ],
      "name": "cancelProject",
      "outputs": [],
      "stateMutability": "nonpayable",
      "type": "function"
    },
    {
      "inputs": [
        {
          "internalType": "uint256",
          "name": "_projectId",
          "type": "uint256"
        },
        {
          "internalType": "uint256",
          "name": "_milestoneIndex",
          "type": "uint256"
        }
      ],
      "name": "completeMilestone",
      "outputs": [],
      "stateMutability": "nonpayable",
      "type": "function"
    },
    {
      "inputs": [
        {
          "internalType": "address",
          "name": "_seller",
          "type": "address"
        },
        {
          "internalType": "address",
          "name": "_arbitrator",
          "type": "address"
        }
      ],
      "name": "createEscrow",
      "outputs": [],
      "stateMutability": "payable",
      "type": "function"
    },
    {
      "inputs": [
        {
          "internalType": "string",
          "name": "_title",
          "type": "string"
        },
        {
          "internalType": "string",
          "name": "_description",
          "type": "string"
        },
        {
          "internalType": "address",
          "name": "_freelancer",
          "type": "address"
        },
        {
          "internalType": "uint256[]",
          "name": "_milestoneAmounts",
          "type": "uint256[]"
        },
        {
          "internalType": "uint256",
          "name": "_deadline",
          "type": "uint256"
        }
      ],
      "name": "createProject",
      "outputs": [],
      "stateMutability": "payable",
      "type": "function"
    },
    {
      "inputs": [
        {
          "internalType": "uint256",
          "name": "_escrowId",
          "type": "uint256"
        }
      ],
      "name": "depositFunds",
      "outputs": [],
      "stateMutability": "payable",
      "type": "function"
    },
    {
      "inputs": [
        {
          "internalType": "uint256",
          "name": "_projectId",
          "type": "uint256"
        },
        {
          "internalType": "string",
          "name": "_ipfsHash",
          "type": "string"
        }
      ],
      "name": "disputeProject",
      "outputs": [],
      "stateMutability": "nonpayable",
      "type": "function"
    },
    {
      "inputs": [],
      "name": "escrowCount",
      "outputs": [
        {
          "internalType": "uint256",
          "name": "",
          "type": "uint256"
        }
      ],
      "stateMutability": "view",
      "type": "function"
    },
    {
      "inputs": [
        {
          "internalType": "uint256",
          "name": "",
          "type": "uint256"
        }
      ],
      "name": "escrows",
      "outputs": [
        {
          "internalType": "address",
          "name": "buyer",
          "type": "address"
        },
        {
          "internalType": "address",
          "name": "seller",
          "type": "address"
        },
        {
          "internalType": "address",
          "name": "arbitrator",
          "type": "address"
        },
        {
          "internalType": "uint256",
          "name": "amount",
          "type": "uint256"
        },
        {
          "internalType": "uint8",
          "name": "status",
          "type": "uint8"
        },
        {
          "internalType": "string",
          "name": "ipfsHash",
          "type": "string"
        }
      ],
      "stateMutability": "view",
      "type": "function"
    },
    {
      "inputs": [
        {
          "internalType": "uint256",
          "name": "_escrowId",
          "type": "uint256"
        }
      ],
      "name": "getEscrowDetails",
      "outputs": [
        {
          "internalType": "address",
          "name": "buyer",
          "type": "address"
        },
        {
          "internalType": "address",
          "name": "seller",
          "type": "address"
        },
        {
          "internalType": "address",
          "name": "arbitrator",
          "type": "address"
        },
        {
          "internalType": "uint256",
          "name": "amount",
          "type": "uint256"
        },
        {
          "internalType": "uint8",
          "name": "status",
          "type": "uint8"
        },
        {
          "internalType": "string",
          "name": "ipfsHash",
          "type": "string"
        }
      ],
      "stateMutability": "view",
      "type": "function"
    },
    {
      "inputs": [
        {
          "internalType": "uint256",
          "name": "_projectId",
          "type": "uint256"
        }
      ],
      "name": "getProjectDetails",
      "outputs": [
        {
          "internalType": "string",
          "name": "title",
          "type": "string"
        },
        {
          "internalType": "string",
          "name": "description",
          "type": "string"
        },
        {
          "internalType": "address",
          "name": "client",
          "type": "address"
        },
        {
          "internalType": "address",
          "name": "freelancer",
          "type": "address"
        },
        {
          "internalType": "uint256",
          "name": "budget",
          "type": "uint256"
        },
        {
          "internalType": "uint8",
          "name": "status",
          "type": "uint8"
        },
        {
          "internalType": "uint256",
          "name": "completedMilestones",
          "type": "uint256"
        },
        {
          "internalType": "uint256",
          "name": "totalMilestones",
          "type": "uint256"
        },
        {
          "internalType": "uint256",
          "name": "deadline",
          "type": "uint256"
        }
      ],
      "stateMutability": "view",
      "type": "function"
    },
    {
      "inputs": [],
      "name": "projectCount",
      "outputs": [
        {
          "internalType": "uint256",
          "name": "",
          "type": "uint256"
        }
      ],
      "stateMutability": "view",
      "type": "function"
    },
    {
      "inputs": [
        {
          "internalType": "uint256",
          "name": "",
          "type": "uint256"
        }
      ],
      "name": "projects",
      "outputs": [
        {
          "internalType": "string",
          "name": "title",
          "type": "string"
        },
        {
          "internalType": "string",
          "name": "description",
          "type": "string"
        },
        {
          "internalType": "address",
          "name": "client",
          "type": "address"
        },
        {
          "internalType": "address",
          "name": "freelancer",
          "type": "address"
        },
        {
          "internalType": "uint256",
          "name": "budget",
          "type": "uint256"
        },
        {
          "internalType": "uint8",
          "name": "status",
          "type": "uint8"
        },
        {
          "internalType": "uint256",
          "name": "completedMilestones",
          "type": "uint256"
        },
        {
          "internalType": "uint256",
          "name": "totalMilestones",
          "type": "uint256"
        },
        {
          "internalType": "uint256",
          "name": "deadline",
          "type": "uint256"
        }
      ],
      "stateMutability": "view",
      "type": "function"
    },
    {
      "inputs": [
        {
          "internalType": "uint256",
          "name": "_escrowId",
          "type": "uint256"
        },
        {
          "internalType": "string",
          "name": "_ipfsHash",
          "type": "string"
        }
      ],
      "name": "raiseDispute",
      "outputs": [],
      "stateMutability": "nonpayable",
      "type": "function"
    },
    {
      "inputs": [
        {
          "internalType": "uint256",
          "name": "_escrowId",
          "type": "uint256"
        }
      ],
      "name": "releaseFunds",
      "outputs": [],
      "stateMutability": "nonpayable",
      "type": "function"
    },
    {
      "inputs": [
        {
          "internalType": "uint256",
          "name": "_escrowId",
          "type": "uint256"
        },
        {
          "internalType": "bool",
          "name": "_releaseFunds",
          "type": "bool"
        }
      ],
      "name": "resolveDispute",
      "outputs": [],
      "stateMutability": "nonpayable",
      "type": "function"
    }
  ],
  "bytecode": "0x608060405234801561001057600080fd5b506137d0806100206000396000f3fe6080604052600436106100e85760003560e01c80635aef573c1161008a578063b996ec2a11610059578063b996ec2a146102eb578063cd7935c91461032d578063f326206b14610356578063f6dacab51461037f576100e8565b80635aef573c146102365780635f8439e31461025f578063675ac67a146102a4578063834cc6fc146102cf576100e8565b806334b25ee2116100c657806334b25ee21461019d57806336fbad26146101c65780633b76594d146101f15780634d68282f1461020d576100e8565b8063012f52ee146100ed578063107046bd1461012f5780632494114714610174575b600080fd5b3480156100f957600080fd5b50610114600480360381019061010f91906120b5565b61039b565b604051610126969594939291906121de565b60405180910390f35b34801561013b57600080fd5b50610156600480360381019061015191906120b5565b6104cc565b60405161016b99989796959493929190612246565b60405180910390f35b34801561018057600080fd5b5061019b600480360381019061019691906120b5565b610677565b005b3480156101a957600080fd5b506101c460048036038101906101bf9190612319565b6107e5565b005b3480156101d257600080fd5b506101db610af5565b6040516101e89190612359565b60405180910390f35b61020b600480360381019061020691906120b5565b610afb565b005b34801561021957600080fd5b50610234600480360381019061022f91906120b5565b610c94565b005b34801561024257600080fd5b5061025d600480360381019061025891906124a9565b610f11565b005b34801561026b57600080fd5b50610286600480360381019061028191906120b5565b6110d7565b60405161029b99989796959493929190612246565b60405180910390f35b3480156102b057600080fd5b506102b96112ab565b6040516102c69190612359565b60405180910390f35b6102e960048036038101906102e49190612531565b6112b1565b005b3480156102f757600080fd5b50610312600480360381019061030d91906120b5565b6116e4565b604051610324969594939291906121de565b60405180910390f35b34801561033957600080fd5b50610354600480360381019061034f91906124a9565b611830565b005b34801561036257600080fd5b5061037d60048036038101906103789190612571565b6119e5565b005b61039960048036038101906103949190612679565b611c23565b005b60006020528060005260406000206000915090508060000160009054906101000a900473ffffffffffffffffffffffffffffffffffffffff16908060010160009054906101000a900473ffffffffffffffffffffffffffffffffffffffff16908060020160009054906101000a900473ffffffffffffffffffffffffffffffffffffffff16908060030154908060040160009054906101000a900460ff169080600501805461044990612777565b80601f016020809104026020016040519081016040528092919081815260200182805461047590612777565b80156104c25780601f10610497576101008083540402835291602001916104c2565b820191906000526020600020905b8154815290600101906020018083116104a557829003601f168201915b5050505050905086565b60016020528060005260406000206000915090508060000180546104ef90612777565b80601f016020809104026020016040519081016040528092919081815260200182805461051b90612777565b80156105685780601f1061053d57610100808354040283529160200191610568565b820191906000526020600020905b81548152906001019060200180831161054b57829003601f168201915b50505050509080600101805461057d90612777565b80601f01602080910402602001604051908101604052809291908181526020018280546105a990612777565b80156105f65780601f106105cb576101008083540402835291602001916105f6565b820191906000526020600020905b8154815290600101906020018083116105d957829003601f168201915b5050505050908060020160009054906101000a900473ffffffffffffffffffffffffffffffffffffffff16908060030160009054906101000a900473ffffffffffffffffffffffffffffffffffffffff16908060040154908060050160009054906101000a900460ff16908060060154908060070154908060080154905089565b600060016000838152602001908152602001600020905060008160050160009054906101000a900460ff1660ff1614806106c5575060018160050160009054906101000a900460ff1660ff16145b610704576040517f08c379a00000000000000000000000000000000000000000000000000000000081526004016106fb9061281a565b60405180910390fd5b8060020160009054906101000a900473ffffffffffffffffffffffffffffffffffffffff1673ffffffffffffffffffffffffffffffffffffffff163373ffffffffffffffffffffffffffffffffffffffff1614610796576040517f08c379a000000000000000000000000000000000000000000000000000000000815260040161078d90612886565b60405180910390fd5b60048160050160006101000a81548160ff021916908360ff160217905550817fe3805ed669490875ae87c5c8b1ad6ecca0e5e67305a833926d0d4317c4822fc060405160405180910390a25050565b6000806000848152602001908152602001600020905060038160040160009054906101000a900460ff1660ff1614610852576040517f08c379a0000000000000000000000000000000000000000000000000000000008152600401610849906128f2565b60405180910390fd5b8060020160009054906101000a900473ffffffffffffffffffffffffffffffffffffffff1673ffffffffffffffffffffffffffffffffffffffff163373ffffffffffffffffffffffffffffffffffffffff16146108e4576040517f08c379a00000000000000000000000000000000000000000000000000000000081526004016108db90612984565b60405180910390fd5b60048160040160006101000a81548160ff021916908360ff16021790555081156109e25760008160010160009054906101000a900473ffffffffffffffffffffffffffffffffffffffff1673ffffffffffffffffffffffffffffffffffffffff168260030154604051610956906129d5565b60006040518083038185875af1925050503d8060008114610993576040519150601f19603f3d011682016040523d82523d6000602084013e610998565b606091505b50509050806109dc576040517f08c379a00000000000000000000000000000000000000000000000000000000081526004016109d390612a36565b60405180910390fd5b50610ab8565b60008160000160009054906101000a900473ffffffffffffffffffffffffffffffffffffffff1673ffffffffffffffffffffffffffffffffffffffff168260030154604051610a30906129d5565b60006040518083038185875af1925050503d8060008114610a6d576040519150601f19603f3d011682016040523d82523d6000602084013e610a72565b606091505b5050905080610ab6576040517f08c379a0000000000000000000000000000000000000000000000000000000008152600401610aad90612a36565b60405180910390fd5b505b827f5a87909bff68caaaaf0b3fd9c74eeccc928832f879315e5c6fb7a73612f26c0c83604051610ae89190612a65565b60405180910390a2505050565b60035481565b600080600083815260200190815260200160002090503373ffffffffffffffffffffffffffffffffffffffff168160000160009054906101000a900473ffffffffffffffffffffffffffffffffffffffff1673ffffffffffffffffffffffffffffffffffffffff1614610ba3576040517f08c379a0000000000000000000000000000000000000000000000000000000008152600401610b9a90612acc565b60405180910390fd5b60018160040160009054906101000a900460ff1660ff1614610bfa576040517f08c379a0000000000000000000000000000000000000000000000000000000008152600401610bf190612b5e565b60405180910390fd5b60003411610c3d576040517f08c379a0000000000000000000000000000000000000000000000000000000008152600401610c3490612bca565b60405180910390fd5b34816003016000828254610c519190612c19565b92505081905550817f26679fa1f3868c950e9362f1106cf73f3318de0280e0411a3c68e4b463eadd4f34604051610c889190612359565b60405180910390a25050565b6000806000838152602001908152602001600020905060018160040160009054906101000a900460ff1660ff1614610d01576040517f08c379a0000000000000000000000000000000000000000000000000000000008152600401610cf890612cbf565b60405180910390fd5b8060000160009054906101000a900473ffffffffffffffffffffffffffffffffffffffff1673ffffffffffffffffffffffffffffffffffffffff163373ffffffffffffffffffffffffffffffffffffffff161480610dae57508060020160009054906101000a900473ffffffffffffffffffffffffffffffffffffffff1673ffffffffffffffffffffffffffffffffffffffff163373ffffffffffffffffffffffffffffffffffffffff16145b610ded576040517f08c379a0000000000000000000000000000000000000000000000000000000008152600401610de490612d51565b60405180910390fd5b60028160040160006101000a81548160ff021916908360ff16021790555060008160010160009054906101000a900473ffffffffffffffffffffffffffffffffffffffff1673ffffffffffffffffffffffffffffffffffffffff168260030154604051610e59906129d5565b60006040518083038185875af1925050503d8060008114610e96576040519150601f19603f3d011682016040523d82523d6000602084013e610e9b565b606091505b5050905080610edf576040517f08c379a0000000000000000000000000000000000000000000000000000000008152600401610ed690612a36565b60405180910390fd5b827f952b264c8e0a06cddb4bbaa6d6af1d565145329fd95bbe72cb2b53942b2dc96660405160405180910390a2505050565b6000806000848152602001908152602001600020905060018160040160009054906101000a900460ff1660ff1614610f7e576040517f08c379a0000000000000000000000000000000000000000000000000000000008152600401610f7590612cbf565b60405180910390fd5b8060000160009054906101000a900473ffffffffffffffffffffffffffffffffffffffff1673ffffffffffffffffffffffffffffffffffffffff163373ffffffffffffffffffffffffffffffffffffffff16148061102b57508060010160009054906101000a900473ffffffffffffffffffffffffffffffffffffffff1673ffffffffffffffffffffffffffffffffffffffff163373ffffffffffffffffffffffffffffffffffffffff16145b61106a576040517f08c379a000000000000000000000000000000000000000000000000000000000815260040161106190612de3565b60405180910390fd5b60038160040160006101000a81548160ff021916908360ff160217905550818160050190816110999190612faf565b50827fe07ad455e24561261e9047aab2f668ae1fc2cc6fda35021764673613b888836d836040516110ca9190613081565b60405180910390a2505050565b606080600080600080600080600080600160008c8152602001908152602001600020905080600001816001018260020160009054906101000a900473ffffffffffffffffffffffffffffffffffffffff168360030160009054906101000a900473ffffffffffffffffffffffffffffffffffffffff1684600401548560050160009054906101000a900460ff1686600601548760070154886008015488805461117f90612777565b80601f01602080910402602001604051908101604052809291908181526020018280546111ab90612777565b80156111f85780601f106111cd576101008083540402835291602001916111f8565b820191906000526020600020905b8154815290600101906020018083116111db57829003601f168201915b5050505050985087805461120b90612777565b80601f016020809104026020016040519081016040528092919081815260200182805461123790612777565b80156112845780601f1061125957610100808354040283529160200191611284565b820191906000526020600020905b81548152906001019060200180831161126757829003601f168201915b50505050509750995099509950995099509950995099509950509193959799909294969850565b60025481565b600034116112f4576040517f08c379a00000000000000000000000000000000000000000000000000000000081526004016112eb90612bca565b60405180910390fd5b600073ffffffffffffffffffffffffffffffffffffffff168273ffffffffffffffffffffffffffffffffffffffff1603611363576040517f08c379a000000000000000000000000000000000000000000000000000000000815260040161135a906130ef565b60405180910390fd5b600073ffffffffffffffffffffffffffffffffffffffff168173ffffffffffffffffffffffffffffffffffffffff16036113d2576040517f08c379a00000000000000000000000000000000000000000000000000000000081526004016113c99061315b565b60405180910390fd5b3373ffffffffffffffffffffffffffffffffffffffff168173ffffffffffffffffffffffffffffffffffffffff161415801561143a57508173ffffffffffffffffffffffffffffffffffffffff168173ffffffffffffffffffffffffffffffffffffffff1614155b611479576040517f08c379a0000000000000000000000000000000000000000000000000000000008152600401611470906131c7565b60405180910390fd5b60006002600081548092919061148e906131e7565b9190505590506040518060c001604052803373ffffffffffffffffffffffffffffffffffffffff1681526020018473ffffffffffffffffffffffffffffffffffffffff1681526020018373ffffffffffffffffffffffffffffffffffffffff168152602001348152602001600160ff1681526020016040518060200160405280600081525081525060008083815260200190815260200160002060008201518160000160006101000a81548173ffffffffffffffffffffffffffffffffffffffff021916908373ffffffffffffffffffffffffffffffffffffffff16021790555060208201518160010160006101000a81548173ffffffffffffffffffffffffffffffffffffffff021916908373ffffffffffffffffffffffffffffffffffffffff16021790555060408201518160020160006101000a81548173ffffffffffffffffffffffffffffffffffffffff021916908373ffffffffffffffffffffffffffffffffffffffff1602179055506060820151816003015560808201518160040160006101000a81548160ff021916908360ff16021790555060a082015181600501908161163d9190612faf565b509050508273ffffffffffffffffffffffffffffffffffffffff163373ffffffffffffffffffffffffffffffffffffffff16827f9405ad0a6208539879349284d71265479b1623846f70303da1f9890d6e8c10a73460405161169f9190612359565b60405180910390a4807f26679fa1f3868c950e9362f1106cf73f3318de0280e0411a3c68e4b463eadd4f346040516116d79190612359565b60405180910390a2505050565b60008060008060006060600080600089815260200190815260200160002090508060000160009054906101000a900473ffffffffffffffffffffffffffffffffffffffff168160010160009054906101000a900473ffffffffffffffffffffffffffffffffffffffff168260020160009054906101000a900473ffffffffffffffffffffffffffffffffffffffff1683600301548460040160009054906101000a900460ff168560050180805461179a90612777565b80601f01602080910402602001604051908101604052809291908181526020018280546117c690612777565b80156118135780601f106117e857610100808354040283529160200191611813565b820191906000526020600020905b8154815290600101906020018083116117f657829003601f168201915b505050505090509650965096509650965096505091939550919395565b600060016000848152602001908152602001600020905060018160050160009054906101000a900460ff1660ff161461189e576040517f08c379a00000000000000000000000000000000000000000000000000000000081526004016118959061327b565b60405180910390fd5b8060020160009054906101000a900473ffffffffffffffffffffffffffffffffffffffff1673ffffffffffffffffffffffffffffffffffffffff163373ffffffffffffffffffffffffffffffffffffffff16148061194b57508060030160009054906101000a900473ffffffffffffffffffffffffffffffffffffffff1673ffffffffffffffffffffffffffffffffffffffff163373ffffffffffffffffffffffffffffffffffffffff16145b61198a576040517f08c379a00000000000000000000000000000000000000000000000000000000081526004016119819061330d565b60405180910390fd5b60038160050160006101000a81548160ff021916908360ff160217905550827ff3f16df7d287bc7934432dfa39a7be0348d4b676103d2679d12c64904e6d95e9836040516119d89190613081565b60405180910390a2505050565b600060016000848152602001908152602001600020905060018160050160009054906101000a900460ff1660ff1614611a53576040517f08c379a0000000000000000000000000000000000000000000000000000000008152600401611a4a9061327b565b60405180910390fd5b8060020160009054906101000a900473ffffffffffffffffffffffffffffffffffffffff1673ffffffffffffffffffffffffffffffffffffffff163373ffffffffffffffffffffffffffffffffffffffff1614611ae5576040517f08c379a0000000000000000000000000000000000000000000000000000000008152600401611adc9061339f565b60405180910390fd5b80600701548210611b2b576040517f08c379a0000000000000000000000000000000000000000000000000000000008152600401611b229061340b565b60405180910390fd5b80600601548214611b71576040517f08c379a0000000000000000000000000000000000000000000000000000000008152600401611b689061349d565b60405180910390fd5b806006016000815480929190611b86906131e7565b9190505550827f1b7218c0ac23ea9cbe4df603d2b340fbf469a115b73ea3d11460727f445d6be183604051611bbb9190612359565b60405180910390a28060070154816006015403611c1e5760028160050160006101000a81548160ff021916908360ff160217905550827f60d8df137e489b6216738e436244ca4700bd6d0c8371d3c8d9c80b54538111b960405160405180910390a25b505050565b60003411611c66576040517f08c379a0000000000000000000000000000000000000000000000000000000008152600401611c5d90613509565b60405180910390fd5b600073ffffffffffffffffffffffffffffffffffffffff168373ffffffffffffffffffffffffffffffffffffffff1603611cd5576040517f08c379a0000000000000000000000000000000000000000000000000000000008152600401611ccc90613575565b60405180910390fd5b3373ffffffffffffffffffffffffffffffffffffffff168373ffffffffffffffffffffffffffffffffffffffff1603611d43576040517f08c379a0000000000000000000000000000000000000000000000000000000008152600401611d3a906135e1565b60405180910390fd5b6000825111611d87576040517f08c379a0000000000000000000000000000000000000000000000000000000008152600401611d7e9061364d565b60405180910390fd5b428111611dc9576040517f08c379a0000000000000000000000000000000000000000000000000000000008152600401611dc0906136b9565b60405180910390fd5b6000805b8351811015611e1157838181518110611de957611de86136d9565b5b602002602001015182611dfc9190612c19565b91508080611e09906131e7565b915050611dcd565b5080341015611e55576040517f08c379a0000000000000000000000000000000000000000000000000000000008152600401611e4c9061377a565b60405180910390fd5b600060036000815480929190611e6a906131e7565b9190505590506040518061012001604052808881526020018781526020013373ffffffffffffffffffffffffffffffffffffffff1681526020018673ffffffffffffffffffffffffffffffffffffffff168152602001348152602001600060ff168152602001600081526020018551815260200184815250600160008381526020019081526020016000206000820151816000019081611f0a9190612faf565b506020820151816001019081611f209190612faf565b5060408201518160020160006101000a81548173ffffffffffffffffffffffffffffffffffffffff021916908373ffffffffffffffffffffffffffffffffffffffff16021790555060608201518160030160006101000a81548173ffffffffffffffffffffffffffffffffffffffff021916908373ffffffffffffffffffffffffffffffffffffffff1602179055506080820151816004015560a08201518160050160006101000a81548160ff021916908360ff16021790555060c0820151816006015560e0820151816007015561010082015181600801559050508473ffffffffffffffffffffffffffffffffffffffff163373ffffffffffffffffffffffffffffffffffffffff16827ff03bc2e49a83d942284cb30e1c2935d4b542e1e1e6456d28b5365ddb110a52a23460405161205a9190612359565b60405180910390a450505050505050565b6000604051905090565b600080fd5b600080fd5b6000819050919050565b6120928161207f565b811461209d57600080fd5b50565b6000813590506120af81612089565b92915050565b6000602082840312156120cb576120ca612075565b5b60006120d9848285016120a0565b91505092915050565b600073ffffffffffffffffffffffffffffffffffffffff82169050919050565b600061210d826120e2565b9050919050565b61211d81612102565b82525050565b61212c8161207f565b82525050565b600060ff82169050919050565b61214881612132565b82525050565b600081519050919050565b600082825260208201905092915050565b60005b8381101561218857808201518184015260208101905061216d565b60008484015250505050565b6000601f19601f8301169050919050565b60006121b08261214e565b6121ba8185612159565b93506121ca81856020860161216a565b6121d381612194565b840191505092915050565b600060c0820190506121f36000830189612114565b6122006020830188612114565b61220d6040830187612114565b61221a6060830186612123565b612227608083018561213f565b81810360a083015261223981846121a5565b9050979650505050505050565b6000610120820190508181036000830152612261818c6121a5565b90508181036020830152612275818b6121a5565b9050612284604083018a612114565b6122916060830189612114565b61229e6080830188612123565b6122ab60a083018761213f565b6122b860c0830186612123565b6122c560e0830185612123565b6122d3610100830184612123565b9a9950505050505050505050565b60008115159050919050565b6122f6816122e1565b811461230157600080fd5b50565b600081359050612313816122ed565b92915050565b600080604083850312156123305761232f612075565b5b600061233e858286016120a0565b925050602061234f85828601612304565b9150509250929050565b600060208201905061236e6000830184612123565b92915050565b600080fd5b600080fd5b7f4e487b7100000000000000000000000000000000000000000000000000000000600052604160045260246000fd5b6123b682612194565b810181811067ffffffffffffffff821117156123d5576123d461237e565b5b80604052505050565b60006123e861206b565b90506123f482826123ad565b919050565b600067ffffffffffffffff8211156124145761241361237e565b5b61241d82612194565b9050602081019050919050565b82818337600083830152505050565b600061244c612447846123f9565b6123de565b90508281526020810184848401111561246857612467612379565b5b61247384828561242a565b509392505050565b600082601f8301126124905761248f612374565b5b81356124a0848260208601612439565b91505092915050565b600080604083850312156124c0576124bf612075565b5b60006124ce858286016120a0565b925050602083013567ffffffffffffffff8111156124ef576124ee61207a565b5b6124fb8582860161247b565b9150509250929050565b61250e81612102565b811461251957600080fd5b50565b60008135905061252b81612505565b92915050565b6000806040838503121561254857612547612075565b5b60006125568582860161251c565b92505060206125678582860161251c565b9150509250929050565b6000806040838503121561258857612587612075565b5b6000612596858286016120a0565b92505060206125a7858286016120a0565b9150509250929050565b600067ffffffffffffffff8211156125cc576125cb61237e565b5b602082029050602081019050919050565b600080fd5b60006125f56125f0846125b1565b6123de565b90508083825260208201905060208402830185811115612618576126176125dd565b5b835b81811015612641578061262d88826120a0565b84526020840193505060208101905061261a565b5050509392505050565b600082601f8301126126605761265f612374565b5b81356126708482602086016125e2565b91505092915050565b600080600080600060a0868803121561269557612694612075565b5b600086013567ffffffffffffffff8111156126b3576126b261207a565b5b6126bf8882890161247b565b955050602086013567ffffffffffffffff8111156126e0576126df61207a565b5b6126ec8882890161247b565b94505060406126fd8882890161251c565b935050606086013567ffffffffffffffff81111561271e5761271d61207a565b5b61272a8882890161264b565b925050608061273b888289016120a0565b9150509295509295909350565b7f4e487b7100000000000000000000000000000000000000000000000000000000600052602260045260246000fd5b6000600282049050600182168061278f57607f821691505b6020821081036127a2576127a1612748565b5b50919050565b7f50726f6a656374206d75737420626520696e2063726561746564206f7220696e60008201527f2070726f67726573732073746174650000000000000000000000000000000000602082015250565b6000612804602f83612159565b915061280f826127a8565b604082019050919050565b60006020820190508181036000830152612833816127f7565b9050919050565b7f4f6e6c7920636c69656e742063616e2063616e63656c2070726f6a6563740000600082015250565b6000612870601e83612159565b915061287b8261283a565b602082019050919050565b6000602082019050818103600083015261289f81612863565b9050919050565b7f457363726f77206d75737420626520696e204469737075746564207374617465600082015250565b60006128dc602083612159565b91506128e7826128a6565b602082019050919050565b6000602082019050818103600083015261290b816128cf565b9050919050565b7f4f6e6c792061726269747261746f722063616e207265736f6c7665206469737060008201527f7574650000000000000000000000000000000000000000000000000000000000602082015250565b600061296e602383612159565b915061297982612912565b604082019050919050565b6000602082019050818103600083015261299d81612961565b9050919050565b600081905092915050565b50565b60006129bf6000836129a4565b91506129ca826129af565b600082019050919050565b60006129e0826129b2565b9150819050919050565b7f5472616e73666572206661696c65640000000000000000000000000000000000600082015250565b6000612a20600f83612159565b9150612a2b826129ea565b602082019050919050565b60006020820190508181036000830152612a4f81612a13565b9050919050565b612a5f816122e1565b82525050565b6000602082019050612a7a6000830184612a56565b92915050565b7f4f6e6c792062757965722063616e206465706f7369742066756e647300000000600082015250565b6000612ab6601c83612159565b9150612ac182612a80565b602082019050919050565b60006020820190508181036000830152612ae581612aa9565b9050919050565b7f457363726f77206d75737420626520696e2046756e646564207374617465207460008201527f6f20616464206d6f72652066756e647300000000000000000000000000000000602082015250565b6000612b48603083612159565b9150612b5382612aec565b604082019050919050565b60006020820190508181036000830152612b7781612b3b565b9050919050565b7f416d6f756e74206d7573742062652067726561746572207468616e2030000000600082015250565b6000612bb4601d83612159565b9150612bbf82612b7e565b602082019050919050565b60006020820190508181036000830152612be381612ba7565b9050919050565b7f4e487b7100000000000000000000000000000000000000000000000000000000600052601160045260246000fd5b6000612c248261207f565b9150612c2f8361207f565b9250828201905080821115612c4757612c46612bea565b5b92915050565b7f457363726f77206d75737420626520696e20496e50726f67726573732073746160008201527f7465000000000000000000000000000000000000000000000000000000000000602082015250565b6000612ca9602283612159565b9150612cb482612c4d565b604082019050919050565b60006020820190508181036000830152612cd881612c9c565b9050919050565b7f4f6e6c79206275796572206f722061726269747261746f722063616e2072656c60008201527f656173652066756e647300000000000000000000000000000000000000000000602082015250565b6000612d3b602a83612159565b9150612d4682612cdf565b604082019050919050565b60006020820190508181036000830152612d6a81612d2e565b9050919050565b7f4f6e6c79206275796572206f722073656c6c65722063616e207261697365206460008201527f6973707574650000000000000000000000000000000000000000000000000000602082015250565b6000612dcd602683612159565b9150612dd882612d71565b604082019050919050565b60006020820190508181036000830152612dfc81612dc0565b9050919050565b60008190508160005260206000209050919050565b60006020601f8301049050919050565b600082821b905092915050565b600060088302612e657fffffffffffffffffffffffffffffffffffffffffffffffffffffffffffffffff82612e28565b612e6f8683612e28565b95508019841693508086168417925050509392505050565b6000819050919050565b6000612eac612ea7612ea28461207f565b612e87565b61207f565b9050919050565b6000819050919050565b612ec683612e91565b612eda612ed282612eb3565b848454612e35565b825550505050565b600090565b612eef612ee2565b612efa818484612ebd565b505050565b5b81811015612f1e57612f13600082612ee7565b600181019050612f00565b5050565b601f821115612f6357612f3481612e03565b612f3d84612e18565b81016020851015612f4c578190505b612f60612f5885612e18565b830182612eff565b50505b505050565b600082821c905092915050565b6000612f8660001984600802612f68565b1980831691505092915050565b6000612f9f8383612f75565b9150826002028217905092915050565b612fb88261214e565b67ffffffffffffffff811115612fd157612fd061237e565b5b612fdb8254612777565b612fe6828285612f22565b600060209050601f8311600181146130195760008415613007578287015190505b6130118582612f93565b865550613079565b601f19841661302786612e03565b60005b8281101561304f5784890151825560018201915060208501945060208101905061302a565b8683101561306c5784890151613068601f891682612f75565b8355505b6001600288020188555050505b505050505050565b6000602082019050818103600083015261309b81846121a5565b905092915050565b7f496e76616c69642073656c6c6572206164647265737300000000000000000000600082015250565b60006130d9601683612159565b91506130e4826130a3565b602082019050919050565b60006020820190508181036000830152613108816130cc565b9050919050565b7f496e76616c69642061726269747261746f722061646472657373000000000000600082015250565b6000613145601a83612159565b91506131508261310f565b602082019050919050565b6000602082019050818103600083015261317481613138565b9050919050565b7f41726269747261746f72206d7573742062652061207468697264207061727479600082015250565b60006131b1602083612159565b91506131bc8261317b565b602082019050919050565b600060208201905081810360008301526131e0816131a4565b9050919050565b60006131f28261207f565b91507fffffffffffffffffffffffffffffffffffffffffffffffffffffffffffffffff820361322457613223612bea565b5b600182019050919050565b7f50726f6a656374206d75737420626520696e2070726f67726573730000000000600082015250565b6000613265601b83612159565b91506132708261322f565b602082019050919050565b6000602082019050818103600083015261329481613258565b9050919050565b7f4f6e6c7920636c69656e74206f7220667265656c616e6365722063616e20726160008201527f6973652064697370757465000000000000000000000000000000000000000000602082015250565b60006132f7602b83612159565b91506133028261329b565b604082019050919050565b60006020820190508181036000830152613326816132ea565b9050919050565b7f4f6e6c7920636c69656e742063616e20636f6d706c657465206d696c6573746f60008201527f6e65730000000000000000000000000000000000000000000000000000000000602082015250565b6000613389602383612159565b91506133948261332d565b604082019050919050565b600060208201905081810360008301526133b88161337c565b9050919050565b7f496e76616c6964206d696c6573746f6e6520696e646578000000000000000000600082015250565b60006133f5601783612159565b9150613400826133bf565b602082019050919050565b60006020820190508181036000830152613424816133e8565b9050919050565b7f4d696c6573746f6e6573206d75737420626520636f6d706c6574656420696e2060008201527f6f72646572000000000000000000000000000000000000000000000000000000602082015250565b6000613487602583612159565b91506134928261342b565b604082019050919050565b600060208201905081810360008301526134b68161347a565b9050919050565b7f427564676574206d7573742062652067726561746572207468616e2030000000600082015250565b60006134f3601d83612159565b91506134fe826134bd565b602082019050919050565b60006020820190508181036000830152613522816134e6565b9050919050565b7f496e76616c696420667265656c616e6365722061646472657373000000000000600082015250565b600061355f601a83612159565b915061356a82613529565b602082019050919050565b6000602082019050818103600083015261358e81613552565b9050919050565b7f467265656c616e6365722063616e6e6f742062652074686520636c69656e7400600082015250565b60006135cb601f83612159565b91506135d682613595565b602082019050919050565b600060208201905081810360008301526135fa816135be565b9050919050565b7f4d7573742068617665206174206c65617374206f6e65206d696c6573746f6e65600082015250565b6000613637602083612159565b915061364282613601565b602082019050919050565b600060208201905081810360008301526136668161362a565b9050919050565b7f446561646c696e65206d75737420626520696e20746865206675747572650000600082015250565b60006136a3601e83612159565b91506136ae8261366d565b602082019050919050565b600060208201905081810360008301526136d281613696565b9050919050565b7f4e487b7100000000000000000000000000000000000000000000000000000000600052603260045260246000fd5b7f496e73756666696369656e742062756467657420666f72206d696c6573746f6e60008201527f6573000000000000000000000000000000000000000000000000000000000000602082015250565b6000613764602283612159565b915061376f82613708565b604082019050919050565b6000602082019050818103600083015261379381613757565b905091905056fea264697066735822122045780d7133b8cb54dd9f5b788f34775dcc6e38c4470887e61b0f62312cf8669364736f6c63430008130033",
  "linkReferences": {},
  "deployedLinkReferences": {}
}