{
  "_format": "hh-sol-artifact-1",
  "contractName": "Escrow",
  "sourceName": "contracts/Escrow.sol",
  "abi": [
    {
      "anonymous": false,
      "inputs": [
        {
          "indexed": true,
          "internalType": "uint256",
          "name": "escrowId",
          "type": "uint256"
        },
        {
          "indexed": false,
          "internalType": "string",
          "name": "ipfsHash",
          "type": "string"
        }
      ],
      "name": "DisputeRaised",
      "type": "event"
    },
    {
      "anonymous": false,
      "inputs": [
        {
          "indexed": true,
          "internalType": "uint256",
          "name": "escrowId",
          "type": "uint256"
        },
        {
          "indexed": false,
          "internalType": "bool",
          "name": "fundsReleased",
          "type": "bool"
        }
      ],
      "name": "DisputeResolved",
      "type": "event"
    },
    {
      "anonymous": false,
      "inputs": [
        {
          "indexed": true,
          "internalType": "uint256",
          "name": "escrowId",
          "type": "uint256"
        },
        {
          "indexed": true,
          "internalType": "address",
          "name": "buyer",
          "type": "address"
        },
        {
          "indexed": true,
          "internalType": "address",
          "name": "seller",
          "type": "address"
        },
        {
          "indexed": false,
          "internalType": "uint256",
          "name": "amount",
          "type": "uint256"
        }
      ],
      "name": "EscrowCreated",
      "type": "event"
    },
    {
      "anonymous": false,
      "inputs": [
        {
          "indexed": true,
          "internalType": "uint256",
          "name": "escrowId",
          "type": "uint256"
        },
        {
          "indexed": false,
          "internalType": "uint256",
          "name": "amount",
          "type": "uint256"
        }
      ],
      "name": "FundsDeposited",
      "type": "event"
    },
    {
      "anonymous": false,
      "inputs": [
        {
          "indexed": true,
          "internalType": "uint256",
          "name": "escrowId",
          "type": "uint256"
        }
      ],
      "name": "FundsReleased",
      "type": "event"
    },
    {
      "anonymous": false,
      "inputs": [
        {
          "indexed": true,
          "internalType": "uint256",
          "name": "projectId",
          "type": "uint256"
        },
        {
          "indexed": false,
          "internalType": "uint256",
          "name": "milestoneIndex",
          "type": "uint256"
        }
      ],
      "name": "MilestoneCompleted",
      "type": "event"
    },
    {
      "anonymous": false,
      "inputs": [
        {
          "indexed": true,
          "internalType": "uint256",
          "name": "projectId",
          "type": "uint256"
        }
      ],
      "name": "ProjectCancelled",
      "type": "event"
    },
    {
      "anonymous": false,
      "inputs": [
        {
          "indexed": true,
          "internalType": "uint256",
          "name": "projectId",
          "type": "uint256"
        }
      ],
      "name": "ProjectCompleted",
      "type": "event"
    },
    {
      "anonymous": false,
      "inputs": [
        {
          "indexed": true,
          "internalType": "uint256",
          "name": "projectId",
          "type": "uint256"
        },
        {
          "indexed": true,
          "internalType": "address",
          "name": "client",
          "type": "address"
        },
        {
          "indexed": true,
          "internalType": "address",
          "name": "freelancer",
          "type": "address"
        },
        {
          "indexed": false,
          "internalType": "uint256",
          "name": "budget",
          "type": "uint256"
        }
      ],
      "name": "ProjectCreated",
      "type": "event"
    },
    {
      "anonymous": false,
      "inputs": [
        {
          "indexed": true,
          "internalType": "uint256",
          "name": "projectId",
          "type": "uint256"
        },
        {
          "indexed": false,
          "internalType": "string",
          "name": "ipfsHash",
          "type": "string"
        }
      ],
      "name": "ProjectDisputed",
      "type": "event"
    },
    {
      "inputs": [
        {
          "internalType": "uint256",
          "name": "_projectId",
          "type": "uint256"
        }
      ],
      "name": "cancelProject",
      "outputs": [],
      "stateMutability": "nonpayable",
      "type": "function"
    },
    {
      "inputs": [
        {
          "internalType": "uint256",
          "name": "_projectId",
          "type": "uint256"
        },
        {
          "internalType": "uint256",
          "name": "_milestoneIndex",
          "type": "uint256"
        }
      ],
      "name": "completeMilestone",
      "outputs": [],
      "stateMutability": "nonpayable",
      "type": "function"
    },
    {
      "inputs": [
        {
          "internalType": "address",
          "name": "_seller",
          "type": "address"
        },
        {
          "internalType": "address",
          "name": "_arbitrator",
          "type": "address"
        }
      ],
      "name": "createEscrow",
      "outputs": [],
      "stateMutability": "payable",
      "type": "function"
    },
    {
      "inputs": [
        {
          "internalType": "string",
          "name": "_title",
          "type": "string"
        },
        {
          "internalType": "string",
          "name": "_description",
          "type": "string"
        },
        {
          "internalType": "address",
          "name": "_freelancer",
          "type": "address"
        },
        {
          "internalType": "uint256[]",
          "name": "_milestoneAmounts",
          "type": "uint256[]"
        },
        {
          "internalType": "uint256",
          "name": "_deadline",
          "type": "uint256"
        }
      ],
      "name": "createProject",
      "outputs": [],
      "stateMutability": "payable",
      "type": "function"
    },
    {
      "inputs": [
        {
          "internalType": "uint256",
          "name": "_escrowId",
          "type": "uint256"
        }
      ],
      "name": "depositFunds",
      "outputs": [],
      "stateMutability": "payable",
      "type": "function"
    },
    {
      "inputs": [
        {
          "internalType": "uint256",
          "name": "_projectId",
          "type": "uint256"
        },
        {
          "internalType": "string",
          "name": "_ipfsHash",
          "type": "string"
        }
      ],
      "name": "disputeProject",
      "outputs": [],
      "stateMutability": "nonpayable",
      "type": "function"
    },
    {
      "inputs": [],
      "name": "escrowCount",
      "outputs": [
        {
          "internalType": "uint256",
          "name": "",
          "type": "uint256"
        }
      ],
      "stateMutability": "view",
      "type": "function"
    },
    {
      "inputs": [
        {
          "internalType": "uint256",
          "name": "",
          "type": "uint256"
        }
      ],
      "name": "escrows",
      "outputs": [
        {
          "internalType": "address",
          "name": "buyer",
          "type": "address"
        },
        {
          "internalType": "address",
          "name": "seller",
          "type": "address"
        },
        {
          "internalType": "address",
          "name": "arbitrator",
          "type": "address"
        },
        {
          "internalType": "uint256",
          "name": "amount",
          "type": "uint256"
        },
        {
          "internalType": "uint8",
          "name": "status",
          "type": "uint8"
        },
        {
          "internalType": "string",
          "name": "ipfsHash",
          "type": "string"
        }
      ],
      "stateMutability": "view",
      "type": "function"
    },
    {
      "inputs": [
        {
          "internalType": "uint256",
          "name": "_escrowId",
          "type": "uint256"
        }
      ],
      "name": "getEscrowDetails",
      "outputs": [
        {
          "internalType": "address",
          "name": "buyer",
          "type": "address"
        },
        {
          "internalType": "address",
          "name": "seller",
          "type": "address"
        },
        {
          "internalType": "address",
          "name": "arbitrator",
          "type": "address"
        },
        {
          "internalType": "uint256",
          "name": "amount",
          "type": "uint256"
        },
        {
          "internalType": "uint8",
          "name": "status",
          "type": "uint8"
        },
        {
          "internalType": "string",
          "name": "ipfsHash",
          "type": "string"
        }
      ],
      "stateMutability": "view",
      "type": "function"
    },
    {
      "inputs": [
        {
          "internalType": "uint256",
          "name": "_projectId",
          "type": "uint256"
        }
      ],
      "name": "getProjectDetails",
      "outputs": [
        {
          "internalType": "string",
          "name": "title",
          "type": "string"
        },
        {
          "internalType": "string",
          "name": "description",
          "type": "string"
        },
        {
          "internalType": "address",
          "name": "client",
          "type": "address"
        },
        {
          "internalType": "address",
          "name": "freelancer",
          "type": "address"
        },
        {
          "internalType": "uint256",
          "name": "budget",
          "type": "uint256"
        },
        {
          "internalType": "uint8",
          "name": "status",
          "type": "uint8"
        },
        {
          "internalType": "uint256",
          "name": "completedMilestones",
          "type": "uint256"
        },
        {
          "internalType": "uint256",
          "name": "totalMilestones",
          "type": "uint256"
        },
        {
          "internalType": "uint256",
          "name": "deadline",
          "type": "uint256"
        }
      ],
      "stateMutability": "view",
      "type": "function"
    },
    {
      "inputs": [],
      "name": "projectCount",
      "outputs": [
        {
          "internalType": "uint256",
          "name": "",
          "type": "uint256"
        }
      ],
      "stateMutability": "view",
      "type": "function"
    },
    {
      "inputs": [
        {
          "internalType": "uint256",
          "name": "",
          "type": "uint256"
        }
      ],
      "name": "projects",
      "outputs": [
        {
          "internalType": "string",
          "name": "title",
          "type": "string"
        },
        {
          "internalType": "string",
          "name": "description",
          "type": "string"
        },
        {
          "internalType": "address",
          "name": "client",
          "type": "address"
        },
        {
          "internalType": "address",
          "name": "freelancer",
          "type": "address"
        },
        {
          "internalType": "uint256",
          "name": "budget",
          "type": "uint256"
        },
        {
          "internalType": "uint8",
          "name": "status",
          "type": "uint8"
        },
        {
          "internalType": "uint256",
          "name": "completedMilestones",
          "type": "uint256"
        },
        {
          "internalType": "uint256",
          "name": "totalMilestones",
          "type": "uint256"
        },
        {
          "internalType": "uint256",
          "name": "deadline",
          "type": "uint256"
        }
      ],
      "stateMutability": "view",
      "type": "function"
    },
    {
      "inputs": [
        {
          "internalType": "uint256",
          "name": "_escrowId",
          "type": "uint256"
        },
        {
          "internalType": "string",
          "name": "_ipfsHash",
          "type": "string"
        }
      ],
      "name": "raiseDispute",
      "outputs": [],
      "stateMutability": "nonpayable",
      "type": "function"
    },
    {
      "inputs": [
        {
          "internalType": "uint256",
          "name": "_escrowId",
          "type": "uint256"
        }
      ],
      "name": "releaseFunds",
      "outputs": [],
      "stateMutability": "nonpayable",
      "type": "function"
    },
    {
      "inputs": [
        {
          "internalType": "uint256",
          "name": "_escrowId",
          "type": "uint256"
        },
        {
          "internalType": "bool",
          "name": "_releaseFunds",
          "type": "bool"
        }
      ],
      "name": "resolveDispute",
      "outputs": [],
      "stateMutability": "nonpayable",
      "type": "function"
    }
  ],
  "bytecode": "0x608060405234801561001057600080fd5b50613790806100206000396000f3fe6080604052600436106100e85760003560e01c80635aef573c1161008a578063b996ec2a11610059578063b996ec2a146102eb578063cd7935c91461032d578063f326206b14610356578063f6dacab51461037f576100e8565b80635aef573c146102365780635f8439e31461025f578063675ac67a146102a4578063834cc6fc146102cf576100e8565b806334b25ee2116100c657806334b25ee21461019d57806336fbad26146101c65780633b76594d146101f15780634d68282f1461020d576100e8565b8063012f52ee146100ed578063107046bd1461012f5780632494114714610174575b600080fd5b3480156100f957600080fd5b50610114600480360381019061010f919061209b565b61039b565b604051610126969594939291906121c4565b60405180910390f35b34801561013b57600080fd5b506101566004803603810190610151919061209b565b6104cc565b60405161016b9998979695949392919061222c565b60405180910390f35b34801561018057600080fd5b5061019b6004803603810190610196919061209b565b610677565b005b3480156101a957600080fd5b506101c460048036038101906101bf91906122ff565b6107e5565b005b3480156101d257600080fd5b506101db610af5565b6040516101e8919061233f565b60405180910390f35b61020b6004803603810190610206919061209b565b610afb565b005b34801561021957600080fd5b50610234600480360381019061022f919061209b565b610cb2565b005b34801561024257600080fd5b5061025d6004803603810190610258919061248f565b610f2f565b005b34801561026b57600080fd5b506102866004803603810190610281919061209b565b6110f5565b60405161029b9998979695949392919061222c565b60405180910390f35b3480156102b057600080fd5b506102b96112c9565b6040516102c6919061233f565b60405180910390f35b6102e960048036038101906102e49190612517565b6112cf565b005b3480156102f757600080fd5b50610312600480360381019061030d919061209b565b6116ca565b604051610324969594939291906121c4565b60405180910390f35b34801561033957600080fd5b50610354600480360381019061034f919061248f565b611816565b005b34801561036257600080fd5b5061037d60048036038101906103789190612557565b6119cb565b005b6103996004803603810190610394919061265f565b611c09565b005b60006020528060005260406000206000915090508060000160009054906101000a900473ffffffffffffffffffffffffffffffffffffffff16908060010160009054906101000a900473ffffffffffffffffffffffffffffffffffffffff16908060020160009054906101000a900473ffffffffffffffffffffffffffffffffffffffff16908060030154908060040160009054906101000a900460ff16908060050180546104499061275d565b80601f01602080910402602001604051908101604052809291908181526020018280546104759061275d565b80156104c25780601f10610497576101008083540402835291602001916104c2565b820191906000526020600020905b8154815290600101906020018083116104a557829003601f168201915b5050505050905086565b60016020528060005260406000206000915090508060000180546104ef9061275d565b80601f016020809104026020016040519081016040528092919081815260200182805461051b9061275d565b80156105685780601f1061053d57610100808354040283529160200191610568565b820191906000526020600020905b81548152906001019060200180831161054b57829003601f168201915b50505050509080600101805461057d9061275d565b80601f01602080910402602001604051908101604052809291908181526020018280546105a99061275d565b80156105f65780601f106105cb576101008083540402835291602001916105f6565b820191906000526020600020905b8154815290600101906020018083116105d957829003601f168201915b5050505050908060020160009054906101000a900473ffffffffffffffffffffffffffffffffffffffff16908060030160009054906101000a900473ffffffffffffffffffffffffffffffffffffffff16908060040154908060050160009054906101000a900460ff16908060060154908060070154908060080154905089565b600060016000838152602001908152602001600020905060008160050160009054906101000a900460ff1660ff1614806106c5575060018160050160009054906101000a900460ff1660ff16145b610704576040517f08c379a00000000000000000000000000000000000000000000000000000000081526004016106fb90612800565b60405180910390fd5b8060020160009054906101000a900473ffffffffffffffffffffffffffffffffffffffff1673ffffffffffffffffffffffffffffffffffffffff163373ffffffffffffffffffffffffffffffffffffffff1614610796576040517f08c379a000000000000000000000000000000000000000000000000000000000815260040161078d9061286c565b60405180910390fd5b60048160050160006101000a81548160ff021916908360ff160217905550817fe3805ed669490875ae87c5c8b1ad6ecca0e5e67305a833926d0d4317c4822fc060405160405180910390a25050565b6000806000848152602001908152602001600020905060038160040160009054906101000a900460ff1660ff1614610852576040517f08c379a0000000000000000000000000000000000000000000000000000000008152600401610849906128d8565b60405180910390fd5b8060020160009054906101000a900473ffffffffffffffffffffffffffffffffffffffff1673ffffffffffffffffffffffffffffffffffffffff163373ffffffffffffffffffffffffffffffffffffffff16146108e4576040517f08c379a00000000000000000000000000000000000000000000000000000000081526004016108db9061296a565b60405180910390fd5b60048160040160006101000a81548160ff021916908360ff16021790555081156109e25760008160010160009054906101000a900473ffffffffffffffffffffffffffffffffffffffff1673ffffffffffffffffffffffffffffffffffffffff168260030154604051610956906129bb565b60006040518083038185875af1925050503d8060008114610993576040519150601f19603f3d011682016040523d82523d6000602084013e610998565b606091505b50509050806109dc576040517f08c379a00000000000000000000000000000000000000000000000000000000081526004016109d390612a1c565b60405180910390fd5b50610ab8565b60008160000160009054906101000a900473ffffffffffffffffffffffffffffffffffffffff1673ffffffffffffffffffffffffffffffffffffffff168260030154604051610a30906129bb565b60006040518083038185875af1925050503d8060008114610a6d576040519150601f19603f3d011682016040523d82523d6000602084013e610a72565b606091505b5050905080610ab6576040517f08c379a0000000000000000000000000000000000000000000000000000000008152600401610aad90612a1c565b60405180910390fd5b505b827f5a87909bff68caaaaf0b3fd9c74eeccc928832f879315e5c6fb7a73612f26c0c83604051610ae89190612a4b565b60405180910390a2505050565b60035481565b600080600083815260200190815260200160002090503373ffffffffffffffffffffffffffffffffffffffff168160000160009054906101000a900473ffffffffffffffffffffffffffffffffffffffff1673ffffffffffffffffffffffffffffffffffffffff1614610ba3576040517f08c379a0000000000000000000000000000000000000000000000000000000008152600401610b9a90612ab2565b60405180910390fd5b60008160040160009054906101000a900460ff1660ff1614610bfa576040517f08c379a0000000000000000000000000000000000000000000000000000000008152600401610bf190612b1e565b60405180910390fd5b60003411610c3d576040517f08c379a0000000000000000000000000000000000000000000000000000000008152600401610c3490612b8a565b60405180910390fd5b34816003016000828254610c519190612bd9565b9250508190555060018160040160006101000a81548160ff021916908360ff160217905550817f26679fa1f3868c950e9362f1106cf73f3318de0280e0411a3c68e4b463eadd4f34604051610ca6919061233f565b60405180910390a25050565b6000806000838152602001908152602001600020905060018160040160009054906101000a900460ff1660ff1614610d1f576040517f08c379a0000000000000000000000000000000000000000000000000000000008152600401610d1690612c7f565b60405180910390fd5b8060000160009054906101000a900473ffffffffffffffffffffffffffffffffffffffff1673ffffffffffffffffffffffffffffffffffffffff163373ffffffffffffffffffffffffffffffffffffffff161480610dcc57508060020160009054906101000a900473ffffffffffffffffffffffffffffffffffffffff1673ffffffffffffffffffffffffffffffffffffffff163373ffffffffffffffffffffffffffffffffffffffff16145b610e0b576040517f08c379a0000000000000000000000000000000000000000000000000000000008152600401610e0290612d11565b60405180910390fd5b60028160040160006101000a81548160ff021916908360ff16021790555060008160010160009054906101000a900473ffffffffffffffffffffffffffffffffffffffff1673ffffffffffffffffffffffffffffffffffffffff168260030154604051610e77906129bb565b60006040518083038185875af1925050503d8060008114610eb4576040519150601f19603f3d011682016040523d82523d6000602084013e610eb9565b606091505b5050905080610efd576040517f08c379a0000000000000000000000000000000000000000000000000000000008152600401610ef490612a1c565b60405180910390fd5b827f952b264c8e0a06cddb4bbaa6d6af1d565145329fd95bbe72cb2b53942b2dc96660405160405180910390a2505050565b6000806000848152602001908152602001600020905060018160040160009054906101000a900460ff1660ff1614610f9c576040517f08c379a0000000000000000000000000000000000000000000000000000000008152600401610f9390612c7f565b60405180910390fd5b8060000160009054906101000a900473ffffffffffffffffffffffffffffffffffffffff1673ffffffffffffffffffffffffffffffffffffffff163373ffffffffffffffffffffffffffffffffffffffff16148061104957508060010160009054906101000a900473ffffffffffffffffffffffffffffffffffffffff1673ffffffffffffffffffffffffffffffffffffffff163373ffffffffffffffffffffffffffffffffffffffff16145b611088576040517f08c379a000000000000000000000000000000000000000000000000000000000815260040161107f90612da3565b60405180910390fd5b60038160040160006101000a81548160ff021916908360ff160217905550818160050190816110b79190612f6f565b50827fe07ad455e24561261e9047aab2f668ae1fc2cc6fda35021764673613b888836d836040516110e89190613041565b60405180910390a2505050565b606080600080600080600080600080600160008c8152602001908152602001600020905080600001816001018260020160009054906101000a900473ffffffffffffffffffffffffffffffffffffffff168360030160009054906101000a900473ffffffffffffffffffffffffffffffffffffffff1684600401548560050160009054906101000a900460ff1686600601548760070154886008015488805461119d9061275d565b80601f01602080910402602001604051908101604052809291908181526020018280546111c99061275d565b80156112165780601f106111eb57610100808354040283529160200191611216565b820191906000526020600020905b8154815290600101906020018083116111f957829003601f168201915b505050505098508780546112299061275d565b80601f01602080910402602001604051908101604052809291908181526020018280546112559061275d565b80156112a25780601f10611277576101008083540402835291602001916112a2565b820191906000526020600020905b81548152906001019060200180831161128557829003601f168201915b50505050509750995099509950995099509950995099509950509193959799909294969850565b60025481565b60003411611312576040517f08c379a000000000000000000000000000000000000000000000000000000000815260040161130990612b8a565b60405180910390fd5b600073ffffffffffffffffffffffffffffffffffffffff168273ffffffffffffffffffffffffffffffffffffffff1603611381576040517f08c379a0000000000000000000000000000000000000000000000000000000008152600401611378906130af565b60405180910390fd5b600073ffffffffffffffffffffffffffffffffffffffff168173ffffffffffffffffffffffffffffffffffffffff16036113f0576040517f08c379a00000000000000000000000000000000000000000000000000000000081526004016113e79061311b565b60405180910390fd5b3373ffffffffffffffffffffffffffffffffffffffff168173ffffffffffffffffffffffffffffffffffffffff161415801561145857508173ffffffffffffffffffffffffffffffffffffffff168173ffffffffffffffffffffffffffffffffffffffff1614155b611497576040517f08c379a000000000000000000000000000000000000000000000000000000000815260040161148e90613187565b60405180910390fd5b6000600260008154809291906114ac906131a7565b9190505590506040518060c001604052803373ffffffffffffffffffffffffffffffffffffffff1681526020018473ffffffffffffffffffffffffffffffffffffffff1681526020018373ffffffffffffffffffffffffffffffffffffffff168152602001348152602001600060ff1681526020016040518060200160405280600081525081525060008083815260200190815260200160002060008201518160000160006101000a81548173ffffffffffffffffffffffffffffffffffffffff021916908373ffffffffffffffffffffffffffffffffffffffff16021790555060208201518160010160006101000a81548173ffffffffffffffffffffffffffffffffffffffff021916908373ffffffffffffffffffffffffffffffffffffffff16021790555060408201518160020160006101000a81548173ffffffffffffffffffffffffffffffffffffffff021916908373ffffffffffffffffffffffffffffffffffffffff1602179055506060820151816003015560808201518160040160006101000a81548160ff021916908360ff16021790555060a082015181600501908161165b9190612f6f565b509050508273ffffffffffffffffffffffffffffffffffffffff163373ffffffffffffffffffffffffffffffffffffffff16827f9405ad0a6208539879349284d71265479b1623846f70303da1f9890d6e8c10a7346040516116bd919061233f565b60405180910390a4505050565b60008060008060006060600080600089815260200190815260200160002090508060000160009054906101000a900473ffffffffffffffffffffffffffffffffffffffff168160010160009054906101000a900473ffffffffffffffffffffffffffffffffffffffff168260020160009054906101000a900473ffffffffffffffffffffffffffffffffffffffff1683600301548460040160009054906101000a900460ff16856005018080546117809061275d565b80601f01602080910402602001604051908101604052809291908181526020018280546117ac9061275d565b80156117f95780601f106117ce576101008083540402835291602001916117f9565b820191906000526020600020905b8154815290600101906020018083116117dc57829003601f168201915b505050505090509650965096509650965096505091939550919395565b600060016000848152602001908152602001600020905060018160050160009054906101000a900460ff1660ff1614611884576040517f08c379a000000000000000000000000000000000000000000000000000000000815260040161187b9061323b565b60405180910390fd5b8060020160009054906101000a900473ffffffffffffffffffffffffffffffffffffffff1673ffffffffffffffffffffffffffffffffffffffff163373ffffffffffffffffffffffffffffffffffffffff16148061193157508060030160009054906101000a900473ffffffffffffffffffffffffffffffffffffffff1673ffffffffffffffffffffffffffffffffffffffff163373ffffffffffffffffffffffffffffffffffffffff16145b611970576040517f08c379a0000000000000000000000000000000000000000000000000000000008152600401611967906132cd565b60405180910390fd5b60038160050160006101000a81548160ff021916908360ff160217905550827ff3f16df7d287bc7934432dfa39a7be0348d4b676103d2679d12c64904e6d95e9836040516119be9190613041565b60405180910390a2505050565b600060016000848152602001908152602001600020905060018160050160009054906101000a900460ff1660ff1614611a39576040517f08c379a0000000000000000000000000000000000000000000000000000000008152600401611a309061323b565b60405180910390fd5b8060020160009054906101000a900473ffffffffffffffffffffffffffffffffffffffff1673ffffffffffffffffffffffffffffffffffffffff163373ffffffffffffffffffffffffffffffffffffffff1614611acb576040517f08c379a0000000000000000000000000000000000000000000000000000000008152600401611ac29061335f565b60405180910390fd5b80600701548210611b11576040517f08c379a0000000000000000000000000000000000000000000000000000000008152600401611b08906133cb565b60405180910390fd5b80600601548214611b57576040517f08c379a0000000000000000000000000000000000000000000000000000000008152600401611b4e9061345d565b60405180910390fd5b806006016000815480929190611b6c906131a7565b9190505550827f1b7218c0ac23ea9cbe4df603d2b340fbf469a115b73ea3d11460727f445d6be183604051611ba1919061233f565b60405180910390a28060070154816006015403611c045760028160050160006101000a81548160ff021916908360ff160217905550827f60d8df137e489b6216738e436244ca4700bd6d0c8371d3c8d9c80b54538111b960405160405180910390a25b505050565b60003411611c4c576040517f08c379a0000000000000000000000000000000000000000000000000000000008152600401611c43906134c9565b60405180910390fd5b600073ffffffffffffffffffffffffffffffffffffffff168373ffffffffffffffffffffffffffffffffffffffff1603611cbb576040517f08c379a0000000000000000000000000000000000000000000000000000000008152600401611cb290613535565b60405180910390fd5b3373ffffffffffffffffffffffffffffffffffffffff168373ffffffffffffffffffffffffffffffffffffffff1603611d29576040517f08c379a0000000000000000000000000000000000000000000000000000000008152600401611d20906135a1565b60405180910390fd5b6000825111611d6d576040517f08c379a0000000000000000000000000000000000000000000000000000000008152600401611d649061360d565b60405180910390fd5b428111611daf576040517f08c379a0000000000000000000000000000000000000000000000000000000008152600401611da690613679565b60405180910390fd5b6000805b8351811015611df757838181518110611dcf57611dce613699565b5b602002602001015182611de29190612bd9565b91508080611def906131a7565b915050611db3565b5080341015611e3b576040517f08c379a0000000000000000000000000000000000000000000000000000000008152600401611e329061373a565b60405180910390fd5b600060036000815480929190611e50906131a7565b9190505590506040518061012001604052808881526020018781526020013373ffffffffffffffffffffffffffffffffffffffff1681526020018673ffffffffffffffffffffffffffffffffffffffff168152602001348152602001600060ff168152602001600081526020018551815260200184815250600160008381526020019081526020016000206000820151816000019081611ef09190612f6f565b506020820151816001019081611f069190612f6f565b5060408201518160020160006101000a81548173ffffffffffffffffffffffffffffffffffffffff021916908373ffffffffffffffffffffffffffffffffffffffff16021790555060608201518160030160006101000a81548173ffffffffffffffffffffffffffffffffffffffff021916908373ffffffffffffffffffffffffffffffffffffffff1602179055506080820151816004015560a08201518160050160006101000a81548160ff021916908360ff16021790555060c0820151816006015560e0820151816007015561010082015181600801559050508473ffffffffffffffffffffffffffffffffffffffff163373ffffffffffffffffffffffffffffffffffffffff16827ff03bc2e49a83d942284cb30e1c2935d4b542e1e1e6456d28b5365ddb110a52a234604051612040919061233f565b60405180910390a450505050505050565b6000604051905090565b600080fd5b600080fd5b6000819050919050565b61207881612065565b811461208357600080fd5b50565b6000813590506120958161206f565b92915050565b6000602082840312156120b1576120b061205b565b5b60006120bf84828501612086565b91505092915050565b600073ffffffffffffffffffffffffffffffffffffffff82169050919050565b60006120f3826120c8565b9050919050565b612103816120e8565b82525050565b61211281612065565b82525050565b600060ff82169050919050565b61212e81612118565b82525050565b600081519050919050565b600082825260208201905092915050565b60005b8381101561216e578082015181840152602081019050612153565b60008484015250505050565b6000601f19601f8301169050919050565b600061219682612134565b6121a0818561213f565b93506121b0818560208601612150565b6121b98161217a565b840191505092915050565b600060c0820190506121d960008301896120fa565b6121e660208301886120fa565b6121f360408301876120fa565b6122006060830186612109565b61220d6080830185612125565b81810360a083015261221f818461218b565b9050979650505050505050565b6000610120820190508181036000830152612247818c61218b565b9050818103602083015261225b818b61218b565b905061226a604083018a6120fa565b61227760608301896120fa565b6122846080830188612109565b61229160a0830187612125565b61229e60c0830186612109565b6122ab60e0830185612109565b6122b9610100830184612109565b9a9950505050505050505050565b60008115159050919050565b6122dc816122c7565b81146122e757600080fd5b50565b6000813590506122f9816122d3565b92915050565b600080604083850312156123165761231561205b565b5b600061232485828601612086565b9250506020612335858286016122ea565b9150509250929050565b60006020820190506123546000830184612109565b92915050565b600080fd5b600080fd5b7f4e487b7100000000000000000000000000000000000000000000000000000000600052604160045260246000fd5b61239c8261217a565b810181811067ffffffffffffffff821117156123bb576123ba612364565b5b80604052505050565b60006123ce612051565b90506123da8282612393565b919050565b600067ffffffffffffffff8211156123fa576123f9612364565b5b6124038261217a565b9050602081019050919050565b82818337600083830152505050565b600061243261242d846123df565b6123c4565b90508281526020810184848401111561244e5761244d61235f565b5b612459848285612410565b509392505050565b600082601f8301126124765761247561235a565b5b813561248684826020860161241f565b91505092915050565b600080604083850312156124a6576124a561205b565b5b60006124b485828601612086565b925050602083013567ffffffffffffffff8111156124d5576124d4612060565b5b6124e185828601612461565b9150509250929050565b6124f4816120e8565b81146124ff57600080fd5b50565b600081359050612511816124eb565b92915050565b6000806040838503121561252e5761252d61205b565b5b600061253c85828601612502565b925050602061254d85828601612502565b9150509250929050565b6000806040838503121561256e5761256d61205b565b5b600061257c85828601612086565b925050602061258d85828601612086565b9150509250929050565b600067ffffffffffffffff8211156125b2576125b1612364565b5b602082029050602081019050919050565b600080fd5b60006125db6125d684612597565b6123c4565b905080838252602082019050602084028301858111156125fe576125fd6125c3565b5b835b8181101561262757806126138882612086565b845260208401935050602081019050612600565b5050509392505050565b600082601f8301126126465761264561235a565b5b81356126568482602086016125c8565b91505092915050565b600080600080600060a0868803121561267b5761267a61205b565b5b600086013567ffffffffffffffff81111561269957612698612060565b5b6126a588828901612461565b955050602086013567ffffffffffffffff8111156126c6576126c5612060565b5b6126d288828901612461565b94505060406126e388828901612502565b935050606086013567ffffffffffffffff81111561270457612703612060565b5b61271088828901612631565b925050608061272188828901612086565b9150509295509295909350565b7f4e487b7100000000000000000000000000000000000000000000000000000000600052602260045260246000fd5b6000600282049050600182168061277557607f821691505b6020821081036127885761278761272e565b5b50919050565b7f50726f6a656374206d75737420626520696e2063726561746564206f7220696e60008201527f2070726f67726573732073746174650000000000000000000000000000000000602082015250565b60006127ea602f8361213f565b91506127f58261278e565b604082019050919050565b60006020820190508181036000830152612819816127dd565b9050919050565b7f4f6e6c7920636c69656e742063616e2063616e63656c2070726f6a6563740000600082015250565b6000612856601e8361213f565b915061286182612820565b602082019050919050565b6000602082019050818103600083015261288581612849565b9050919050565b7f457363726f77206d75737420626520696e204469737075746564207374617465600082015250565b60006128c260208361213f565b91506128cd8261288c565b602082019050919050565b600060208201905081810360008301526128f1816128b5565b9050919050565b7f4f6e6c792061726269747261746f722063616e207265736f6c7665206469737060008201527f7574650000000000000000000000000000000000000000000000000000000000602082015250565b600061295460238361213f565b915061295f826128f8565b604082019050919050565b6000602082019050818103600083015261298381612947565b9050919050565b600081905092915050565b50565b60006129a560008361298a565b91506129b082612995565b600082019050919050565b60006129c682612998565b9150819050919050565b7f5472616e73666572206661696c65640000000000000000000000000000000000600082015250565b6000612a06600f8361213f565b9150612a11826129d0565b602082019050919050565b60006020820190508181036000830152612a35816129f9565b9050919050565b612a45816122c7565b82525050565b6000602082019050612a606000830184612a3c565b92915050565b7f4f6e6c792062757965722063616e206465706f7369742066756e647300000000600082015250565b6000612a9c601c8361213f565b9150612aa782612a66565b602082019050919050565b60006020820190508181036000830152612acb81612a8f565b9050919050565b7f457363726f77206d75737420626520696e204372656174656420737461746500600082015250565b6000612b08601f8361213f565b9150612b1382612ad2565b602082019050919050565b60006020820190508181036000830152612b3781612afb565b9050919050565b7f416d6f756e74206d7573742062652067726561746572207468616e2030000000600082015250565b6000612b74601d8361213f565b9150612b7f82612b3e565b602082019050919050565b60006020820190508181036000830152612ba381612b67565b9050919050565b7f4e487b7100000000000000000000000000000000000000000000000000000000600052601160045260246000fd5b6000612be482612065565b9150612bef83612065565b9250828201905080821115612c0757612c06612baa565b5b92915050565b7f457363726f77206d75737420626520696e20496e50726f67726573732073746160008201527f7465000000000000000000000000000000000000000000000000000000000000602082015250565b6000612c6960228361213f565b9150612c7482612c0d565b604082019050919050565b60006020820190508181036000830152612c9881612c5c565b9050919050565b7f4f6e6c79206275796572206f722061726269747261746f722063616e2072656c60008201527f656173652066756e647300000000000000000000000000000000000000000000602082015250565b6000612cfb602a8361213f565b9150612d0682612c9f565b604082019050919050565b60006020820190508181036000830152612d2a81612cee565b9050919050565b7f4f6e6c79206275796572206f722073656c6c65722063616e207261697365206460008201527f6973707574650000000000000000000000000000000000000000000000000000602082015250565b6000612d8d60268361213f565b9150612d9882612d31565b604082019050919050565b60006020820190508181036000830152612dbc81612d80565b9050919050565b60008190508160005260206000209050919050565b60006020601f8301049050919050565b600082821b905092915050565b600060088302612e257fffffffffffffffffffffffffffffffffffffffffffffffffffffffffffffffff82612de8565b612e2f8683612de8565b95508019841693508086168417925050509392505050565b6000819050919050565b6000612e6c612e67612e6284612065565b612e47565b612065565b9050919050565b6000819050919050565b612e8683612e51565b612e9a612e9282612e73565b848454612df5565b825550505050565b600090565b612eaf612ea2565b612eba818484612e7d565b505050565b5b81811015612ede57612ed3600082612ea7565b600181019050612ec0565b5050565b601f821115612f2357612ef481612dc3565b612efd84612dd8565b81016020851015612f0c578190505b612f20612f1885612dd8565b830182612ebf565b50505b505050565b600082821c905092915050565b6000612f4660001984600802612f28565b1980831691505092915050565b6000612f5f8383612f35565b9150826002028217905092915050565b612f7882612134565b67ffffffffffffffff811115612f9157612f90612364565b5b612f9b825461275d565b612fa6828285612ee2565b600060209050601f831160018114612fd95760008415612fc7578287015190505b612fd18582612f53565b865550613039565b601f198416612fe786612dc3565b60005b8281101561300f57848901518255600182019150602085019450602081019050612fea565b8683101561302c5784890151613028601f891682612f35565b8355505b6001600288020188555050505b505050505050565b6000602082019050818103600083015261305b818461218b565b905092915050565b7f496e76616c69642073656c6c6572206164647265737300000000000000000000600082015250565b600061309960168361213f565b91506130a482613063565b602082019050919050565b600060208201905081810360008301526130c88161308c565b9050919050565b7f496e76616c69642061726269747261746f722061646472657373000000000000600082015250565b6000613105601a8361213f565b9150613110826130cf565b602082019050919050565b60006020820190508181036000830152613134816130f8565b9050919050565b7f41726269747261746f72206d7573742062652061207468697264207061727479600082015250565b600061317160208361213f565b915061317c8261313b565b602082019050919050565b600060208201905081810360008301526131a081613164565b9050919050565b60006131b282612065565b91507fffffffffffffffffffffffffffffffffffffffffffffffffffffffffffffffff82036131e4576131e3612baa565b5b600182019050919050565b7f50726f6a656374206d75737420626520696e2070726f67726573730000000000600082015250565b6000613225601b8361213f565b9150613230826131ef565b602082019050919050565b6000602082019050818103600083015261325481613218565b9050919050565b7f4f6e6c7920636c69656e74206f7220667265656c616e6365722063616e20726160008201527f6973652064697370757465000000000000000000000000000000000000000000602082015250565b60006132b7602b8361213f565b91506132c28261325b565b604082019050919050565b600060208201905081810360008301526132e6816132aa565b9050919050565b7f4f6e6c7920636c69656e742063616e20636f6d706c657465206d696c6573746f60008201527f6e65730000000000000000000000000000000000000000000000000000000000602082015250565b600061334960238361213f565b9150613354826132ed565b604082019050919050565b600060208201905081810360008301526133788161333c565b9050919050565b7f496e76616c6964206d696c6573746f6e6520696e646578000000000000000000600082015250565b60006133b560178361213f565b91506133c08261337f565b602082019050919050565b600060208201905081810360008301526133e4816133a8565b9050919050565b7f4d696c6573746f6e6573206d75737420626520636f6d706c6574656420696e2060008201527f6f72646572000000000000000000000000000000000000000000000000000000602082015250565b600061344760258361213f565b9150613452826133eb565b604082019050919050565b600060208201905081810360008301526134768161343a565b9050919050565b7f427564676574206d7573742062652067726561746572207468616e2030000000600082015250565b60006134b3601d8361213f565b91506134be8261347d565b602082019050919050565b600060208201905081810360008301526134e2816134a6565b9050919050565b7f496e76616c696420667265656c616e6365722061646472657373000000000000600082015250565b600061351f601a8361213f565b915061352a826134e9565b602082019050919050565b6000602082019050818103600083015261354e81613512565b9050919050565b7f467265656c616e6365722063616e6e6f742062652074686520636c69656e7400600082015250565b600061358b601f8361213f565b915061359682613555565b602082019050919050565b600060208201905081810360008301526135ba8161357e565b9050919050565b7f4d7573742068617665206174206c65617374206f6e65206d696c6573746f6e65600082015250565b60006135f760208361213f565b9150613602826135c1565b602082019050919050565b60006020820190508181036000830152613626816135ea565b9050919050565b7f446561646c696e65206d75737420626520696e20746865206675747572650000600082015250565b6000613663601e8361213f565b915061366e8261362d565b602082019050919050565b6000602082019050818103600083015261369281613656565b9050919050565b7f4e487b7100000000000000000000000000000000000000000000000000000000600052603260045260246000fd5b7f496e73756666696369656e742062756467657420666f72206d696c6573746f6e60008201527f6573000000000000000000000000000000000000000000000000000000000000602082015250565b600061372460228361213f565b915061372f826136c8565b604082019050919050565b6000602082019050818103600083015261375381613717565b905091905056fea2646970667358221220c4edbd16520f0bcfa0621e928e094f90a8cfe203f2bfe08d89250df0d296dff264736f6c63430008130033",
  "linkReferences": {},
  "deployedLinkReferences": {}
}